:100000000C945D000C9485000C9485000C94850084
:100010000C9485000C9485000C9485000C9485004C
:100020000C9485000C9485000C9485000C9485003C
:100030000C9485000C9485000C9485000C9485002C
:100040000C94B3020C9485000C9423030C94FD02D1
:100050000C9485000C9485000C9485000C9485000C
:100060000C9485000C9485000000000024002700FB
:100070002A0000000000250028002B0004040404CE
:100080000404040402020202020203030303030342
:10009000010204081020408001020408102001021F
:1000A00004081020000000080002010000030407FB
:1000B00000000000000000007B0411241FBECFEFF1
:1000C000D8E0DEBFCDBF11E0A0E0B1E0E4EAF9E0A6
:1000D00002C005900D92A237B107D9F722E0A2E73E
:1000E000B1E001C01D92AA31B207E1F710E0CDE501
:1000F000D0E004C02197FE010E94CA04CC35D1078C
:10010000C9F70E9455030C94D0040C94000090E0B1
:10011000FC01EC55FF4F2491FC01E057FF4F349157
:10012000FC01E458FF4FE491EE23C9F0222339F09B
:10013000233001F1A8F4213019F1223029F1F0E047
:10014000EE0FFF1FEE58FF4FA591B4918FB7F894B3
:10015000EC91611126C030953E233C938FBF0895EA
:100160002730A9F02830C9F0243049F78091800069
:100170008F7D03C0809180008F7780938000DFCFD8
:1001800084B58F7784BDDBCF84B58F7DFBCF809125
:10019000B0008F778093B000D2CF8091B0008F7D78
:1001A000F9CF3E2BDACFCF93DF9390E0FC01E057FD
:1001B000FF4F249184589F4FFC0184918823D1F0F4
:1001C00090E0880F991FFC01E859FF4FA591B49169
:1001D000FC01EE58FF4FC591D49161110EC09FB73D
:1001E000F8948C91E22FE0958E238C932881E22362
:1001F000E8839FBFDF91CF9108958FB7F894EC917A
:10020000E22BEC938FBFF6CF8E50806480937C00FE
:1002100080917A00806480937A0080917A0086FDD4
:10022000FCCF809178009091790008953FB7F894C1
:100230008091790190917A01A0917B01B0917C012C
:1002400026B5A89B05C02F3F19F00196A11DB11D31
:100250003FBFBA2FA92F982F8827BC01CD01620F6D
:10026000711D811D911D42E0660F771F881F991F28
:100270004A95D1F70895AF92BF92CF92DF92EF9255
:10028000FF920F931F93CF93DF936C017B018B0140
:10029000040F151FEB015E01AE18BF08C017D10790
:1002A00059F06991D601ED91FC910190F081E02D1A
:1002B000C6010995892B79F7C501DF91CF911F916F
:1002C0000F91FF90EF90DF90CF90BF90AF90089587
:1002D000FC01538D448D252F30E0842F90E0821B4C
:1002E000930B541710F0CF96089501970895FC01D1
:1002F000918D828D981761F0A28DAE0FBF2FB11D29
:100300005D968C91928D9F5F9F73928F90E0089580
:100310008FEF9FEF0895FC01918D828D981731F03A
:10032000828DE80FF11D858D90E008958FEF9FEF8E
:100330000895FC01918D228D892F90E0805C9F4F64
:10034000821B91098F73992708958DE791E00E9490
:10035000990121E0892B09F420E0822F089580E0A3
:1003600090E0892B29F00E94A50181110C940000D6
:100370000895FC01A48DA80FB92FB11DA35ABF4F3A
:100380002C91848D90E001968F739927848FA68994
:10039000B7892C93A089B1898C91837080648C93E8
:1003A000938D848D981306C00288F389E02D808197
:1003B0008F7D80830895EF92FF920F931F93CF93C9
:1003C000DF93EC0181E0888F9B8D8C8D98131AC090
:1003D000E889F989808185FF15C09FB7F894EE8977
:1003E000FF896083E889F9898081837080648083D4
:1003F0009FBF81E090E0DF91CF911F910F91FF901F
:10040000EF900895F62E0B8D10E00F5F1F4F0F73C6
:100410001127E02E8C8D8E110CC00FB607FCFACF81
:10042000E889F989808185FFF5CFCE010E94B90165
:10043000F1CFEB8DEC0FFD2FF11DE35AFF4FF08252
:100440009FB7F8940B8FEA89FB8980818062CFCFB8
:10045000CF93DF93EC01888D8823B9F0AA89BB89FB
:10046000E889F9898C9185FD03C0808186FD0DC0E6
:100470000FB607FCF7CF8C9185FFF2CF808185FF07
:10048000EDCFCE010E94B901E9CFDF91CF91089560
:1004900060E085E00E94870060E086E00E948700BF
:1004A00060E087E00C948700FC0101900020E9F7F0
:1004B0003197AF01481B590BBC018DE791E00C94BB
:1004C0003B018F929F92AF92BF920F931F93CF9356
:1004D000DF93CDB7DEB7A1970FB6F894DEBF0FBE9E
:1004E000CDBF19A2423008F44AE08E010F5D1F4FC4
:1004F000842E912CB12CA12CA50194010E94A8045A
:10050000E62FB901CA01EA30F4F4E05DD801EE93B8
:100510008D01232B242B252B79F790E080E0109779
:1005200019F0CD010E945402A1960FB6F894DEBFD7
:100530000FBECDBFDF91CF911F910F91BF90AF90B4
:100540009F908F900895E95CE1CFCF93DF930E9455
:100550005402EC0182E191E00E9454028C0F9D1F35
:10056000DF91CF9108951F920F920FB60F92112431
:100570002F933F938F939F93AF93BF938091750178
:1005800090917601A0917701B0917801309174013A
:1005900023E0230F2D3758F50196A11DB11D20939F
:1005A00074018093750190937601A0937701B093C5
:1005B00078018091790190917A01A0917B01B091AD
:1005C0007C010196A11DB11D8093790190937A0160
:1005D000A0937B01B0937C01BF91AF919F918F91CC
:1005E0003F912F910F900FBE0F901F90189526E806
:1005F000230F0296A11DB11DD2CF1F920F920FB6ED
:100600000F9211242F933F934F935F936F937F9398
:100610008F939F93AF93BF93EF93FF938DE791E0F9
:100620000E94B901FF91EF91BF91AF919F918F917E
:100630007F916F915F914F913F912F910F900FBEDE
:100640000F901F9018951F920F920FB60F921124C2
:100650002F938F939F93EF93FF93E0918D01F091F0
:100660008E018081E0919301F091940182FD1BC085
:100670009081809196018F5F8F73209197018217EF
:1006800041F0E0919601F0E0E358FE4F958F8093A2
:100690009601FF91EF919F918F912F910F900FBE37
:1006A0000F901F9018958081F4CF789484B5826064
:1006B00084BD84B5816084BD85B5826085BD85B506
:1006C000816085BD80916E00816080936E00109284
:1006D00081008091810082608093810080918100FF
:1006E0008160809381008091800081608093800090
:1006F0008091B10084608093B1008091B0008160EE
:100700008093B00080917A00846080937A00809119
:100710007A00826080937A0080917A008160809371
:100720007A0080917A00806880937A001092C100EC
:10073000E0918D01F0918E0182E08083E09189014A
:10074000F0918A011082E0918B01F0918C018FEC85
:10075000808310929501E0919101F091920186E0E1
:100760008083E0918F01F09190018081806180838E
:10077000E0918F01F0919001808188608083E09109
:100780008F01F0919001808180688083E0918F01DA
:10079000F091900180818F7D808360E08EE00E94E7
:1007A000D30061E085E00E94D30061E086E00E9412
:1007B000D30061E087E00E94D300C0E0D0E08EE08B
:1007C0000E940401909373018093720183E10E945F
:1007D000040185E191E00E945402C0907201D09022
:1007E00073010D2C000CEE08FF084AE0C701B601AA
:1007F000F7FE0DC06DE28DE791E00E94DB016627F8
:100800007727CB016C197D098E099F094AE00E9468
:10081000610287E291E00E9454024AE063E170E0E5
:1008200080E090E00E9461028091720190917301DA
:1008300001978F38914050F480E391E00E94A50227
:100840000E94480261E087E00E9487008091720167
:1008500090917301815991408F38914050F484E414
:1008600091E00E94A5020E94480261E086E00E9499
:1008700087008091720190917301815293408F3D66
:10088000910550F48EE591E00E94A5020E94480275
:1008900061E085E00E9487000E9416014B015C0127
:1008A00084E6C82ED12CE12CF12C0E941601681987
:1008B00079098A099B09683E734081059105A8F36F
:1008C00081E0C81AD108E108F10828EE820E23E081
:1008D000921EA11CB11CC114D104E104F10429F73A
:1008E000209709F46CCF0E94A501882309F467CFF3
:1008F0000E94000064CFEDE7F1E01382128288EEDF
:1009000093E0A0E0B0E084839583A683B78384E07E
:1009100091E09183808385EC90E09587848784ECD7
:1009200090E09787868780EC90E0918B808B81ECBC
:1009300090E0938B828B82EC90E0958B848B86EC9D
:1009400090E0978B868B118E128E138E148E0895E5
:10095000A1E21A2EAA1BBB1BFD010DC0AA1FBB1FC3
:10096000EE1FFF1FA217B307E407F50720F0A21B35
:10097000B30BE40BF50B661F771F881F991F1A94A2
:1009800069F760957095809590959B01AC01BD01CC
:10099000CF010895EE0FFF1F0590F491E02D09940B
:0409A000F894FFCFF9
:1009A40000000000DB013B01680128029901770186
:1009B4008B010D0A00506F72746120616E616C6F5F
:1009C400676963613A2000232343687576613A00BE
:1009D400205374617475733A20536F6C6F20556D96
:1009E40069646F00205374617475733A20556D699E
:1009F40064616465206D6F64657261646100205395
:100A040074617475733A20536F6C6F207365636FF0
:020A14000000E0
:00000001FF
